{
  "transactions": [
    {
      "hash": "0x18dddf93580c60b37262f4b501131e1547320ab9da118a2f6299e6e68c5ec13f",
      "transactionType": "CALL",
      "contractName": null,
      "contractAddress": "0x779877a7b0d9e8603169ddbd7836e478b4624789",
      "function": "transferAndCall(address,uint256,bytes)",
      "arguments": [
        "0x9DdfaCa8183c41ad55329BdeeD9F6A8d53168B1B",
        "3000000000000000000",
        "0x46c3f42b45998bb628c8ded33418ccf1e5ce5cef60ebd5de5021f9e7a711593d"
      ],
      "transaction": {
        "from": "0x625ae19bba7c65fba435de03de1234702147a382",
        "to": "0x779877a7b0d9e8603169ddbd7836e478b4624789",
        "gas": "0x14cbb",
        "value": "0x0",
        "input": "0x4000aea00000000000000000000000009ddfaca8183c41ad55329bdeed9f6a8d53168b1b00000000000000000000000000000000000000000000000029a2241af62c00000000000000000000000000000000000000000000000000000000000000000060000000000000000000000000000000000000000000000000000000000000002046c3f42b45998bb628c8ded33418ccf1e5ce5cef60ebd5de5021f9e7a711593d",
        "nonce": "0x23",
        "chainId": "0xaa36a7"
      },
      "additionalContracts": [],
      "isFixedGasLimit": false
    }
  ],
  "receipts": [
    {
      "status": "0x1",
      "cumulativeGasUsed": "0xf460c6",
      "logs": [
        {
          "address": "0x779877a7b0d9e8603169ddbd7836e478b4624789",
          "topics": [
            "0xddf252ad1be2c89b69c2b068fc378daa952ba7f163c4a11628f55a4df523b3ef",
            "0x000000000000000000000000625ae19bba7c65fba435de03de1234702147a382",
            "0x0000000000000000000000009ddfaca8183c41ad55329bdeed9f6a8d53168b1b"
          ],
          "data": "0x00000000000000000000000000000000000000000000000029a2241af62c0000",
          "blockHash": "0x7c16a789cb61420fa15e3f81271fdf7d9915523a8e3c0416875c4da97652962b",
          "blockNumber": "0x7e2678",
          "blockTimestamp": "0x6819e2f8",
          "transactionHash": "0x18dddf93580c60b37262f4b501131e1547320ab9da118a2f6299e6e68c5ec13f",
          "transactionIndex": "0x8d",
          "logIndex": "0xf9",
          "removed": false
        },
        {
          "address": "0x779877a7b0d9e8603169ddbd7836e478b4624789",
          "topics": [
            "0xe19260aff97b920c7df27010903aeb9c8d2be5d310a2c67824cf3f15396e4c16",
            "0x000000000000000000000000625ae19bba7c65fba435de03de1234702147a382",
            "0x0000000000000000000000009ddfaca8183c41ad55329bdeed9f6a8d53168b1b"
          ],
          "data": "0x00000000000000000000000000000000000000000000000029a2241af62c00000000000000000000000000000000000000000000000000000000000000000040000000000000000000000000000000000000000000000000000000000000002046c3f42b45998bb628c8ded33418ccf1e5ce5cef60ebd5de5021f9e7a711593d",
          "blockHash": "0x7c16a789cb61420fa15e3f81271fdf7d9915523a8e3c0416875c4da97652962b",
          "blockNumber": "0x7e2678",
          "blockTimestamp": "0x6819e2f8",
          "transactionHash": "0x18dddf93580c60b37262f4b501131e1547320ab9da118a2f6299e6e68c5ec13f",
          "transactionIndex": "0x8d",
          "logIndex": "0xfa",
          "removed": false
        },
        {
          "address": "0x9ddfaca8183c41ad55329bdeed9f6a8d53168b1b",
          "topics": [
            "0x1ced9348ff549fceab2ac57cd3a9de38edaaab274b725ee82c23e8fc8c4eec7a",
            "0x46c3f42b45998bb628c8ded33418ccf1e5ce5cef60ebd5de5021f9e7a711593d"
          ],
          "data": "0x000000000000000000000000000000000000000000000001158e460913d0001f0000000000000000000000000000000000000000000000013f306a2409fc001f",
          "blockHash": "0x7c16a789cb61420fa15e3f81271fdf7d9915523a8e3c0416875c4da97652962b",
          "blockNumber": "0x7e2678",
          "blockTimestamp": "0x6819e2f8",
          "transactionHash": "0x18dddf93580c60b37262f4b501131e1547320ab9da118a2f6299e6e68c5ec13f",
          "transactionIndex": "0x8d",
          "logIndex": "0xfb",
          "removed": false
        }
      ],
      "logsBloom": "0x00000004000000000000000000000000000000000020000000000000020000000000000000000000000000000000000000000000000000000000000000000000000000000000000000000008000004000000000000000000000020000020000008000000000000000000000000000000000000080000020000000010000040000000000000000000000000010000800000008020000000000000000000000000100000000000000000000000010000000000000000000000000004000001000000000002000000000000000000000000000000000000000100000000000000000010000000000000800000000000000000000000000000000000000000000000",
      "type": "0x2",
      "transactionHash": "0x18dddf93580c60b37262f4b501131e1547320ab9da118a2f6299e6e68c5ec13f",
      "transactionIndex": "0x8d",
      "blockHash": "0x7c16a789cb61420fa15e3f81271fdf7d9915523a8e3c0416875c4da97652962b",
      "blockNumber": "0x7e2678",
      "gasUsed": "0xf0e5",
      "effectiveGasPrice": "0xe81cb6083",
      "from": "0x625ae19bba7c65fba435de03de1234702147a382",
      "to": "0x779877a7b0d9e8603169ddbd7836e478b4624789",
      "contractAddress": null
    }
  ],
  "libraries": [],
  "pending": [],
  "returns": {},
  "timestamp": 1746526972,
  "chain": 11155111,
  "commit": "dfc4a3e"
}