{
  "transactions": [
    {
      "hash": "0xb6fa35b89018f20955e09a8087f5d23663d0127f3d8bcfc7419bd250122c052b",
      "transactionType": "CALL",
      "contractName": null,
      "contractAddress": "0x779877a7b0d9e8603169ddbd7836e478b4624789",
      "function": "transferAndCall(address,uint256,bytes)",
      "arguments": [
        "0x9DdfaCa8183c41ad55329BdeeD9F6A8d53168B1B",
        "10",
        "0x46c3f42b45998bb628c8ded33418ccf1e5ce5cef60ebd5de5021f9e7a711593d"
      ],
      "transaction": {
        "from": "0x625ae19bba7c65fba435de03de1234702147a382",
        "to": "0x779877a7b0d9e8603169ddbd7836e478b4624789",
        "gas": "0x15ff7",
        "value": "0x0",
        "input": "0x4000aea00000000000000000000000009ddfaca8183c41ad55329bdeed9f6a8d53168b1b000000000000000000000000000000000000000000000000000000000000000a0000000000000000000000000000000000000000000000000000000000000060000000000000000000000000000000000000000000000000000000000000002046c3f42b45998bb628c8ded33418ccf1e5ce5cef60ebd5de5021f9e7a711593d",
        "nonce": "0x22",
        "chainId": "0xaa36a7"
      },
      "additionalContracts": [],
      "isFixedGasLimit": false
    }
  ],
  "receipts": [
    {
      "status": "0x1",
      "cumulativeGasUsed": "0x10ca554",
      "logs": [
        {
          "address": "0x779877a7b0d9e8603169ddbd7836e478b4624789",
          "topics": [
            "0xddf252ad1be2c89b69c2b068fc378daa952ba7f163c4a11628f55a4df523b3ef",
            "0x000000000000000000000000625ae19bba7c65fba435de03de1234702147a382",
            "0x0000000000000000000000009ddfaca8183c41ad55329bdeed9f6a8d53168b1b"
          ],
          "data": "0x000000000000000000000000000000000000000000000000000000000000000a",
          "blockHash": "0x36efd65011b87c7752fbf4f510ffabdaa9863a168216ed3bcdbd5a4816b372ee",
          "blockNumber": "0x7e2673",
          "blockTimestamp": "0x6819e2bc",
          "transactionHash": "0xb6fa35b89018f20955e09a8087f5d23663d0127f3d8bcfc7419bd250122c052b",
          "transactionIndex": "0x99",
          "logIndex": "0x146",
          "removed": false
        },
        {
          "address": "0x779877a7b0d9e8603169ddbd7836e478b4624789",
          "topics": [
            "0xe19260aff97b920c7df27010903aeb9c8d2be5d310a2c67824cf3f15396e4c16",
            "0x000000000000000000000000625ae19bba7c65fba435de03de1234702147a382",
            "0x0000000000000000000000009ddfaca8183c41ad55329bdeed9f6a8d53168b1b"
          ],
          "data": "0x000000000000000000000000000000000000000000000000000000000000000a0000000000000000000000000000000000000000000000000000000000000040000000000000000000000000000000000000000000000000000000000000002046c3f42b45998bb628c8ded33418ccf1e5ce5cef60ebd5de5021f9e7a711593d",
          "blockHash": "0x36efd65011b87c7752fbf4f510ffabdaa9863a168216ed3bcdbd5a4816b372ee",
          "blockNumber": "0x7e2673",
          "blockTimestamp": "0x6819e2bc",
          "transactionHash": "0xb6fa35b89018f20955e09a8087f5d23663d0127f3d8bcfc7419bd250122c052b",
          "transactionIndex": "0x99",
          "logIndex": "0x147",
          "removed": false
        },
        {
          "address": "0x9ddfaca8183c41ad55329bdeed9f6a8d53168b1b",
          "topics": [
            "0x1ced9348ff549fceab2ac57cd3a9de38edaaab274b725ee82c23e8fc8c4eec7a",
            "0x46c3f42b45998bb628c8ded33418ccf1e5ce5cef60ebd5de5021f9e7a711593d"
          ],
          "data": "0x000000000000000000000000000000000000000000000001158e460913d00015000000000000000000000000000000000000000000000001158e460913d0001f",
          "blockHash": "0x36efd65011b87c7752fbf4f510ffabdaa9863a168216ed3bcdbd5a4816b372ee",
          "blockNumber": "0x7e2673",
          "blockTimestamp": "0x6819e2bc",
          "transactionHash": "0xb6fa35b89018f20955e09a8087f5d23663d0127f3d8bcfc7419bd250122c052b",
          "transactionIndex": "0x99",
          "logIndex": "0x148",
          "removed": false
        }
      ],
      "logsBloom": "0x00000004000000000000000000000000000000000020000000000000020000000000000000000000000000000000000000000000000000000000000000000000000000000000000000000008000004000000000000000000000020000020000008000000000000000000000000000000000000080000020000000010000040000000000000000000000000010000800000008020000000000000000000000000100000000000000000000000010000000000000000000000000004000001000000000002000000000000000000000000000000000000000100000000000000000010000000000000800000000000000000000000000000000000000000000000",
      "type": "0x2",
      "transactionHash": "0xb6fa35b89018f20955e09a8087f5d23663d0127f3d8bcfc7419bd250122c052b",
      "transactionIndex": "0x99",
      "blockHash": "0x36efd65011b87c7752fbf4f510ffabdaa9863a168216ed3bcdbd5a4816b372ee",
      "blockNumber": "0x7e2673",
      "gasUsed": "0xf0a9",
      "effectiveGasPrice": "0xee8fcf2a5",
      "from": "0x625ae19bba7c65fba435de03de1234702147a382",
      "to": "0x779877a7b0d9e8603169ddbd7836e478b4624789",
      "contractAddress": null
    }
  ],
  "libraries": [],
  "pending": [],
  "returns": {},
  "timestamp": 1746526912,
  "chain": 11155111,
  "commit": "dfc4a3e"
}