{
  "transactions": [
    {
      "hash": "0x101a9ad38d5865bf944288e60a2f4a209823a1f4d9ae17f234e443cffeec70a2",
      "transactionType": "CALL",
      "contractName": null,
      "contractAddress": "0x9ddfaca8183c41ad55329bdeed9f6a8d53168b1b",
      "function": "addConsumer(uint256,address)",
      "arguments": [
        "32008119771176468897711766039513295420481410895500955993081283012182731217213",
        "0xf13D09eD3cbdD1C930d4de74808de1f33B6b3D4f"
      ],
      "transaction": {
        "from": "0x625ae19bba7c65fba435de03de1234702147a382",
        "to": "0x9ddfaca8183c41ad55329bdeed9f6a8d53168b1b",
        "gas": "0x21fc9",
        "value": "0x0",
        "input": "0xbec4c08c46c3f42b45998bb628c8ded33418ccf1e5ce5cef60ebd5de5021f9e7a711593d000000000000000000000000f13d09ed3cbdd1c930d4de74808de1f33b6b3d4f",
        "nonce": "0x24",
        "chainId": "0xaa36a7"
      },
      "additionalContracts": [],
      "isFixedGasLimit": false
    }
  ],
  "receipts": [
    {
      "status": "0x1",
      "cumulativeGasUsed": "0x29b32be",
      "logs": [
        {
          "address": "0x9ddfaca8183c41ad55329bdeed9f6a8d53168b1b",
          "topics": [
            "0x1e980d04aa7648e205713e5e8ea3808672ac163d10936d36f91b2c88ac1575e1",
            "0x46c3f42b45998bb628c8ded33418ccf1e5ce5cef60ebd5de5021f9e7a711593d"
          ],
          "data": "0x000000000000000000000000f13d09ed3cbdd1c930d4de74808de1f33b6b3d4f",
          "blockHash": "0x5995a73bd7aaac78a27b5b0eb9eb18a54e4f4b964ff17d2c80baf5ba55f710dc",
          "blockNumber": "0x83ef84",
          "blockTimestamp": "0x685fb81c",
          "transactionHash": "0x101a9ad38d5865bf944288e60a2f4a209823a1f4d9ae17f234e443cffeec70a2",
          "transactionIndex": "0x1ca",
          "logIndex": "0x39a",
          "removed": false
        }
      ],
      "logsBloom": "0x00000000000000000000000000000080000000000020000000000000000000000000000000000000000000000000000000000000000000000000000000000000000000000000000000000000000004000000000000000001000000000000000008000000000000000000000000000000000000080000020000002000000000000000000000000000000000010000000000000000000000000000000000000000000000000000000000000000000000000000000000000000000000000000000000000000000000000000000000000000000000000000000000000000000000000000000000000000000000000000000000000000000000000000000000000000",
      "type": "0x2",
      "transactionHash": "0x101a9ad38d5865bf944288e60a2f4a209823a1f4d9ae17f234e443cffeec70a2",
      "transactionIndex": "0x1ca",
      "blockHash": "0x5995a73bd7aaac78a27b5b0eb9eb18a54e4f4b964ff17d2c80baf5ba55f710dc",
      "blockNumber": "0x83ef84",
      "gasUsed": "0x173d2",
      "effectiveGasPrice": "0x18f63e",
      "from": "0x625ae19bba7c65fba435de03de1234702147a382",
      "to": "0x9ddfaca8183c41ad55329bdeed9f6a8d53168b1b",
      "contractAddress": null
    }
  ],
  "libraries": [],
  "pending": [],
  "returns": {},
  "timestamp": 1751103519,
  "chain": 11155111,
  "commit": "1665fe9"
}